:020000040000FA
:040000008031912892
:100008007E1480314E018C1E5B2840012608031D9A
:100018001628693047018D000130F1007108400150
:10002800A60751282603031D2D288C1825280330E0
:10003800F1007108FB000330250203182A28A501E6
:100048002A287B0803192A280130FB0247018D0161
:10005800102803302606031D352869304701910012
:10006800102804302606031D10288C184528033054
:10007800F1007108A50003307B0203184A28FB0130
:100088004A28250803194A280130A5024701910189
:10009800FF30F10071084001A6007B08031925080C
:1000A800031958287A1559287A114E018C120D1CFB
:1000B8007E287A1A6E28653041011E02031C6728C3
:1000C800FA17FA156828FA13003084314824803169
:1000D8007A167C28653041011E02031C76287A179F
:1000E800FA1577287A1312308431482480317A122D
:1000F8004E010D100C1E8328FA167E01BF014E0119
:10010800101C8F284001240803198D280130A402EF
:10011800FA144E0110107E100900803193288431A2
:100128006924A700FA01FB01A401A501A6017E101C
:10013800400180319F288331BB23803184310F24D3
:1001480080318331962380318331D72380318431C4
:100158003924803184313124803184311C24803128
:100168008431602480314E018C018D019001303042
:1001780096000130970001309A008331ED238031D9
:1001880029304001A1009630A0007F30890BCA2891
:10019800A00BCA28A10BCA288431012480316830F9
:1001A80041011E0203180F292C30F2000130F30020
:1001B80084314F2480314001A3011816843165240D
:1001C800803115304001A1004B30A000BE30890BB2
:1001D800EB28A00BEB28A10BEB280000400118121C
:1001E80084315B24803115304001A1004B30A000E0
:1001F800BE30890BFD28A00BFD28A10BFD280000AF
:1002080001304001A0002008A30705302302031C89
:10021800E12863000D29400118168231E622803159
:10022800400118129A15FA16FA117A11FA14C03008
:100238008B001230843141248031FA1E2A2905307E
:100248004001A0002008A700FA144C29FA1D3629FD
:1002580001304001A0002008A7003230A00020088B
:10026800A40028294001270303194C297A1D3E2997
:10027800043025290530270603194C29A701B93070
:1002880046018C00B9309000940198014001181281
:10029800FA18582A2129FA1132302406031D6F2929
:1002A8001816FA1B7A1F5E2946018C019001FF304F
:1002B80094006529FA1F6829B93046018C0090011D
:1002C8009401FF309800712A46018C01B9309000E2
:1002D800FF309400562A2408031D712AFA117A1156
:1002E8000230A0002008A7001430A0002008A400B5
:1002F800712A2408031D712AFF3046018C00FF3043
:1003080090009401980164304001A0002008A400E6
:100318000330A0002008A700712A2408031D9D2986
:10032800B93046018C00B930900094019801400121
:10033800A70140011812712A181646019401980164
:100348007B080319B029400125080319B029F530A5
:1003580046018C00F530C0297B080319B8296430A0
:1003680046018C00FF30C029400125080319C22925
:10037800FF3046018C0064309000712AA701B93023
:1003880046018C00B93090009D291816023083313F
:10039800692380318231732280317A1CD52940014A
:1003A800181664304001A0002008A4002408031D8A
:1003B800DA290A30A0002008A2000130A202220A8D
:1003C8000319072ADC30A0002008A40040012408F3
:1003D8000319E1291816D0304001A000C930890B53
:1003E800F329A00BF329003240011812053040010F
:1003F800A1000F30A000F130890B002AA00B002AC1
:10040800A10B002AEA2901308331382380314001C9
:1004180018127A1C4C2A46018C019001B4309400C1
:10042800FF3098000B304001A100F630A0002830C2
:10043800890B1C2AA00B1C2AA10B1C2A00004601B0
:100448008C019001FF309400FF3098000930400182
:10045800A1001E30A000E430890B302AA00B302AFE
:10046800A10B302A0000FF3046018C00FF309000BD
:10047800FF309400FF30980005304001A1000F3094
:10048800A000F130890B462AA00B462AA10B462A68
:1004980040011812A701FA11B93046018C00B93091
:1004A800900094019801712A2708A000A101210851
:1004B800003A0319602A712A2008013A03194F29C2
:1004C800033A03197D29013A03199129073A0319B7
:1004D800A029013A0319C929712AFA10212984315E
:1004E8002724823140010C19812A3430F400F2307B
:1004F800890B7C2AF40B7C2A762AFA12FA1A9C2A8F
:10050800400118163430F400F230890B892AF40BB4
:10051800892A400118120330F5000830F4007730BA
:10052800890B942AF40B942AF50B942A0000822A4A
:10053800843165248231DC30F2000530F3008431E7
:100548004F2482310530F5000F30F400F130890B6B
:10055800AB2AF40BAB2AF50BAB2A000084315B24E1
:10056800823140010C19C02A3430F400F230890B72
:10057800BB2AF40BBB2AB52A7B080319C82A25080D
:100588000319C82A7A14C92A7A10FA128431652400
:100598008231D030F2000730F30084314F248231A9
:1005A8000930F5001E30F400E430890BD92AF40B29
:1005B800D92AF50BD92A003284315B24823184315F
:1005C80055240800843165248231E830F200033074
:1005D800F30084314F2482310530F5000F30F400E8
:1005E800F130890BF52AF40BF52AF50BF52A0000F2
:1005F800B030F2000430F30084314F2482310530EA
:10060800F5000F30F400F130890B082BF40B082BA0
:10061800F50B082B00007830F2000530F300843128
:100628004F2482310530F5000F30F400F130890B8A
:100638001B2BF40B1B2BF50B1B2B00004030F2007F
:100648000630F30084314F2482310530F5000F3035
:10065800F400F130890B2E2BF40B2E2BF50B2E2BDF
:10066800000084315B240800F6008431652483315E
:100678000130F602760A0319662BF430F2000130D5
:10068800F30084314F2483310530F500DF30F40066
:10069800BC30890B4D2BF40B4D2BF50B4D2BE83053
:1006A800F2000330F30084314F2483310530F50024
:1006B800DF30F400BC30890B5F2BF40B5F2BF50B9C
:1006C8005F2B3C2B84315B240800F60084316524C1
:1006D8008331F701760877020318932BF801F901A3
:1006E8007908F5007808F400F80A0319F90A1130B6
:1006F800750294300319740203188E2B7908F300DD
:100708007808F20084314F2483314230890B8A2BD8
:100718000032742B0130F4007408F7076E2B843113
:100728005B2408003F3045019300B030940001304D
:100738009600AA3044019E008C3046018E008C0140
:100748008D018C309200900191018C3096009401BB
:1007580095018C309A00980199010B307E01A50013
:100768000A309B000930A4000C309A0008000130C0
:100778007E01B80007304001920098017E01BB015C
:100788000230B9000230C3000230400193009901E1
:100798007E01C6010430CE008430400194009A01E5
:1007A8007E01D1010800D13045018D0080308E00D6
:1007B8000130900047018C018D0180308E0090013E
:1007C8009101803092000D307E01A1000E30A00012
:1007D8000800843165248331D030F2000730F300FB
:1007E80084314F2483313430F400F230890BFA2BF2
:1007F800F40BFA2B84315B2408000A3042018C0088
:1008080003309600093041019F004201111411186C
:100818000B2C960108008030420191000F3098009F
:1008280001308D00F4308C00813052018C000800BA
:1008380018307E01960094305101950006304B0126
:10084800930091010800FF3046018C00FF309000B2
:10085800FF309400FF309800080044018C018D019E
:100868000230910001308E00080080304B019E005C
:100878005A309F00C2309D000800F2007208410102
:100888009F00420111140800F000700841019F0008
:1008980042011114080073084B01900072088F0080
:1008A800080046018C0190019401980108004B0151
:1008B80092014001181308007E01BF010430BE00F8
:0C08C800080080304B019200080005344D
:020000040001F9
:0A000E008C1FBA379F3FFF1FFF3F12
:00000001FF
